{
  "address": "0x3f603B3Fe659D521C733a13c5F542e424292309F",
  "abi": [
    {
      "inputs": [
        {
          "internalType": "contract IEntryPoint",
          "name": "entryPoint",
          "type": "address"
        },
        {
          "internalType": "address[]",
          "name": "_signers",
          "type": "address[]"
        },
        {
          "internalType": "address[]",
          "name": "_guardians",
          "type": "address[]"
        },
        {
          "internalType": "uint256",
          "name": "salt",
          "type": "uint256"
        }
      ],
      "name": "deployWallet",
      "outputs": [
        {
          "internalType": "contract ComplexWallet",
          "name": "",
          "type": "address"
        }
      ],
      "stateMutability": "nonpayable",
      "type": "function"
    },
    {
      "inputs": [
        {
          "internalType": "contract IEntryPoint",
          "name": "entryPoint",
          "type": "address"
        },
        {
          "internalType": "address[]",
          "name": "_signers",
          "type": "address[]"
        },
        {
          "internalType": "address[]",
          "name": "_guardians",
          "type": "address[]"
        },
        {
          "internalType": "uint256",
          "name": "salt",
          "type": "uint256"
        }
      ],
      "name": "getDeploymentAddress",
      "outputs": [
        {
          "internalType": "address",
          "name": "",
          "type": "address"
        }
      ],
      "stateMutability": "view",
      "type": "function"
    }
  ],
  "transactionHash": "0xb7b509595c094fa79823acd1a21b9ebbff2bdbc800226e5b51919ac66a6ab455",
  "args": [],
  "numDeployments": 1,
  "solcInputHash": "97ff463219b80647b90b397be5ed5a55",
  "bytecode": "0x608060405234801561001057600080fd5b50614006806100206000396000f3fe60806040523480156200001157600080fd5b50600436106200003a5760003560e01c80636b4377bb146200003f578063a7353bf51462000075575b600080fd5b6200005d600480360381019062000057919062000433565b620000ab565b6040516200006c9190620004f4565b60405180910390f35b6200009360048036038101906200008d919062000433565b62000166565b604051620000a291906200057c565b60405180910390f35b60008060ff60f81b308460405180602001620000c790620001b7565b6020820181038252601f19601f82011660405250898989604051602001620000f293929190620006a0565b6040516020818303038152906040526040516020016200011492919062000764565b604051602081830303815290604052805190602001206040516020016200013f949392919062000881565b6040516020818303038152906040528051906020012060001c905080915050949350505050565b60008160001b8585856040516200017d90620001b7565b6200018b93929190620006a0565b8190604051809103906000f5905080158015620001ac573d6000803e3d6000fd5b509050949350505050565b6136f980620008d883390190565b6000604051905090565b600080fd5b600080fd5b600073ffffffffffffffffffffffffffffffffffffffff82169050919050565b60006200020682620001d9565b9050919050565b60006200021a82620001f9565b9050919050565b6200022c816200020d565b81146200023857600080fd5b50565b6000813590506200024c8162000221565b92915050565b600080fd5b6000601f19601f8301169050919050565b7f4e487b7100000000000000000000000000000000000000000000000000000000600052604160045260246000fd5b620002a28262000257565b810181811067ffffffffffffffff82111715620002c457620002c362000268565b5b80604052505050565b6000620002d9620001c5565b9050620002e7828262000297565b919050565b600067ffffffffffffffff8211156200030a576200030962000268565b5b602082029050602081019050919050565b600080fd5b6200032b81620001f9565b81146200033757600080fd5b50565b6000813590506200034b8162000320565b92915050565b6000620003686200036284620002ec565b620002cd565b905080838252602082019050602084028301858111156200038e576200038d6200031b565b5b835b81811015620003bb5780620003a688826200033a565b84526020840193505060208101905062000390565b5050509392505050565b600082601f830112620003dd57620003dc62000252565b5b8135620003ef84826020860162000351565b91505092915050565b6000819050919050565b6200040d81620003f8565b81146200041957600080fd5b50565b6000813590506200042d8162000402565b92915050565b6000806000806080858703121562000450576200044f620001cf565b5b600062000460878288016200023b565b945050602085013567ffffffffffffffff811115620004845762000483620001d4565b5b6200049287828801620003c5565b935050604085013567ffffffffffffffff811115620004b657620004b5620001d4565b5b620004c487828801620003c5565b9250506060620004d7878288016200041c565b91505092959194509250565b620004ee81620001f9565b82525050565b60006020820190506200050b6000830184620004e3565b92915050565b6000819050919050565b60006200053c620005366200053084620001d9565b62000511565b620001d9565b9050919050565b600062000550826200051b565b9050919050565b6000620005648262000543565b9050919050565b620005768162000557565b82525050565b60006020820190506200059360008301846200056b565b92915050565b6000620005a6826200051b565b9050919050565b6000620005ba8262000599565b9050919050565b620005cc81620005ad565b82525050565b600081519050919050565b600082825260208201905092915050565b6000819050602082019050919050565b6200060981620001f9565b82525050565b60006200061d8383620005fe565b60208301905092915050565b6000602082019050919050565b60006200064382620005d2565b6200064f8185620005dd565b93506200065c83620005ee565b8060005b83811015620006935781516200067788826200060f565b9750620006848362000629565b92505060018101905062000660565b5085935050505092915050565b6000606082019050620006b76000830186620005c1565b8181036020830152620006cb818562000636565b90508181036040830152620006e1818462000636565b9050949350505050565b600081519050919050565b600081905092915050565b60005b838110156200072157808201518184015260208101905062000704565b60008484015250505050565b60006200073a82620006eb565b620007468185620006f6565b93506200075881856020860162000701565b80840191505092915050565b60006200077282856200072d565b91506200078082846200072d565b91508190509392505050565b60007fff0000000000000000000000000000000000000000000000000000000000000082169050919050565b6000819050919050565b620007d7620007d1826200078c565b620007b8565b82525050565b60008160601b9050919050565b6000620007f782620007dd565b9050919050565b60006200080b82620007ea565b9050919050565b620008276200082182620001f9565b620007fe565b82525050565b6000819050919050565b6200084c6200084682620003f8565b6200082d565b82525050565b6000819050919050565b6000819050919050565b6200087b620008758262000852565b6200085c565b82525050565b60006200088f8287620007c2565b600182019150620008a1828662000812565b601482019150620008b3828562000837565b602082019150620008c5828462000866565b6020820191508190509594505050505056fe60806040523480156200001157600080fd5b50604051620036f9380380620036f98339818101604052810190620000379190620004c6565b82600560006101000a81548173ffffffffffffffffffffffffffffffffffffffff021916908373ffffffffffffffffffffffffffffffffffffffff160217905550816001908051906020019062000090929190620001e5565b508060029080519060200190620000a9929190620001e5565b5060005b82518110156200014257600160036000858481518110620000d357620000d262000560565b5b602002602001015173ffffffffffffffffffffffffffffffffffffffff1673ffffffffffffffffffffffffffffffffffffffff16815260200190815260200160002060006101000a81548160ff02191690831515021790555080806200013990620005c8565b915050620000ad565b5060005b8151811015620001db576001600460008484815181106200016c576200016b62000560565b5b602002602001015173ffffffffffffffffffffffffffffffffffffffff1673ffffffffffffffffffffffffffffffffffffffff16815260200190815260200160002060006101000a81548160ff0219169083151502179055508080620001d290620005c8565b91505062000146565b5050505062000615565b82805482825590600052602060002090810192821562000261579160200282015b82811115620002605782518260006101000a81548173ffffffffffffffffffffffffffffffffffffffff021916908373ffffffffffffffffffffffffffffffffffffffff1602179055509160200191906001019062000206565b5b50905062000270919062000274565b5090565b5b808211156200028f57600081600090555060010162000275565b5090565b6000604051905090565b600080fd5b600080fd5b600073ffffffffffffffffffffffffffffffffffffffff82169050919050565b6000620002d482620002a7565b9050919050565b6000620002e882620002c7565b9050919050565b620002fa81620002db565b81146200030657600080fd5b50565b6000815190506200031a81620002ef565b92915050565b600080fd5b6000601f19601f8301169050919050565b7f4e487b7100000000000000000000000000000000000000000000000000000000600052604160045260246000fd5b620003708262000325565b810181811067ffffffffffffffff8211171562000392576200039162000336565b5b80604052505050565b6000620003a762000293565b9050620003b5828262000365565b919050565b600067ffffffffffffffff821115620003d857620003d762000336565b5b602082029050602081019050919050565b600080fd5b620003f981620002c7565b81146200040557600080fd5b50565b6000815190506200041981620003ee565b92915050565b6000620004366200043084620003ba565b6200039b565b905080838252602082019050602084028301858111156200045c576200045b620003e9565b5b835b8181101562000489578062000474888262000408565b8452602084019350506020810190506200045e565b5050509392505050565b600082601f830112620004ab57620004aa62000320565b5b8151620004bd8482602086016200041f565b91505092915050565b600080600060608486031215620004e257620004e16200029d565b5b6000620004f28682870162000309565b935050602084015167ffffffffffffffff811115620005165762000515620002a2565b5b620005248682870162000493565b925050604084015167ffffffffffffffff811115620005485762000547620002a2565b5b620005568682870162000493565b9150509250925092565b7f4e487b7100000000000000000000000000000000000000000000000000000000600052603260045260246000fd5b7f4e487b7100000000000000000000000000000000000000000000000000000000600052601160045260246000fd5b6000819050919050565b6000620005d582620005be565b91507fffffffffffffffffffffffffffffffffffffffffffffffffffffffffffffffff82036200060a57620006096200058f565b5b600182019050919050565b6130d480620006256000396000f3fe6080604052600436106101235760003560e01c806380c5c7d0116100a0578063c399ec8811610064578063c399ec88146103cb578063d0cb75fa146103f6578063eb12d61e1461041f578063f0709e0a14610448578063f560c734146104715761012a565b806380c5c7d0146102fa578063a526d83b14610323578063a9059cbb1461034c578063affed0e014610375578063b0d691fe146103a05761012a565b80632079fb9a116100e75780632079fb9a146102245780634a58db19146102615780634d44560d1461026b57806371404156146102945780637df73e27146102bd5761012a565b80630565bb671461012f5780630825d1fc146101585780630c68ba21146101955780630e316ab7146101d25780631b71bb6e146101fb5761012a565b3661012a57005b600080fd5b34801561013b57600080fd5b5061015660048036038101906101519190611d9b565b6104ae565b005b34801561016457600080fd5b5061017f600480360381019061017a9190611e6a565b61050b565b60405161018c9190611efc565b60405180910390f35b3480156101a157600080fd5b506101bc60048036038101906101b79190611f17565b610556565b6040516101c99190611f5f565b60405180910390f35b3480156101de57600080fd5b506101f960048036038101906101f49190611f17565b610576565b005b34801561020757600080fd5b50610222600480360381019061021d9190611f17565b6107f0565b005b34801561023057600080fd5b5061024b60048036038101906102469190611f7a565b610804565b6040516102589190611fb6565b60405180910390f35b610269610843565b005b34801561027757600080fd5b50610292600480360381019061028d919061200f565b6108c3565b005b3480156102a057600080fd5b506102bb60048036038101906102b69190611f17565b610943565b005b3480156102c957600080fd5b506102e460048036038101906102df9190611f17565b610bbf565b6040516102f19190611f5f565b60405180910390f35b34801561030657600080fd5b50610321600480360381019061031c9190611d9b565b610bdf565b005b34801561032f57600080fd5b5061034a60048036038101906103459190611f17565b610c3c565b005b34801561035857600080fd5b50610373600480360381019061036e919061200f565b610d8f565b005b34801561038157600080fd5b5061038a610de2565b6040516103979190611efc565b60405180910390f35b3480156103ac57600080fd5b506103b5610e11565b6040516103c291906120ae565b60405180910390f35b3480156103d757600080fd5b506103e0610e3b565b6040516103ed9190611efc565b60405180910390f35b34801561040257600080fd5b5061041d60048036038101906104189190612175565b610ec3565b005b34801561042b57600080fd5b5061044660048036038101906104419190611f17565b610fd5565b005b34801561045457600080fd5b5061046f600480360381019061046a9190612418565b611128565b005b34801561047d57600080fd5b5061049860048036038101906104939190611f7a565b6113b5565b6040516104a59190611fb6565b60405180910390f35b6104b66113f4565b610505848484848080601f016020809104026020016040519081016040528093929190818152602001838380828437600081840152601f19601f820116905080830192505050505050506114b8565b50505050565b600061051561153c565b6105208585856115b3565b905060008580604001906105349190612483565b90500361054557610544856116fb565b5b61054e826117a8565b949350505050565b60046020528060005260406000206000915054906101000a900460ff1681565b61057e6113f4565b600360008273ffffffffffffffffffffffffffffffffffffffff1673ffffffffffffffffffffffffffffffffffffffff16815260200190815260200160002060009054906101000a900460ff1661060a576040517f08c379a000000000000000000000000000000000000000000000000000000000815260040161060190612543565b60405180910390fd5b60005b600180549050811015610794578173ffffffffffffffffffffffffffffffffffffffff166001828154811061064557610644612563565b5b9060005260206000200160009054906101000a900473ffffffffffffffffffffffffffffffffffffffff1673ffffffffffffffffffffffffffffffffffffffff160361078157600180808054905061069d91906125c1565b815481106106ae576106ad612563565b5b9060005260206000200160009054906101000a900473ffffffffffffffffffffffffffffffffffffffff16600182815481106106ed576106ec612563565b5b9060005260206000200160006101000a81548173ffffffffffffffffffffffffffffffffffffffff021916908373ffffffffffffffffffffffffffffffffffffffff1602179055506001805480610747576107466125f5565b5b6001900381819060005260206000200160006101000a81549073ffffffffffffffffffffffffffffffffffffffff02191690559055610794565b808061078c90612624565b91505061060d565b506000600360008373ffffffffffffffffffffffffffffffffffffffff1673ffffffffffffffffffffffffffffffffffffffff16815260200190815260200160002060006101000a81548160ff02191690831515021790555050565b6107f8611844565b6108018161184e565b50565b6001818154811061081457600080fd5b906000526020600020016000915054906101000a900473ffffffffffffffffffffffffffffffffffffffff1681565b600061084d610e11565b73ffffffffffffffffffffffffffffffffffffffff16346040516108709061269d565b60006040518083038185875af1925050503d80600081146108ad576040519150601f19603f3d011682016040523d82523d6000602084013e6108b2565b606091505b50509050806108c057600080fd5b50565b6108cb6113f4565b6108d3610e11565b73ffffffffffffffffffffffffffffffffffffffff1663205c287883836040518363ffffffff1660e01b815260040161090d9291906126c1565b600060405180830381600087803b15801561092757600080fd5b505af115801561093b573d6000803e3d6000fd5b505050505050565b61094b6113f4565b600460008273ffffffffffffffffffffffffffffffffffffffff1673ffffffffffffffffffffffffffffffffffffffff16815260200190815260200160002060009054906101000a900460ff166109d7576040517f08c379a00000000000000000000000000000000000000000000000000000000081526004016109ce90612736565b60405180910390fd5b60005b600280549050811015610b63578173ffffffffffffffffffffffffffffffffffffffff1660028281548110610a1257610a11612563565b5b9060005260206000200160009054906101000a900473ffffffffffffffffffffffffffffffffffffffff1673ffffffffffffffffffffffffffffffffffffffff1603610b505760026001600280549050610a6c91906125c1565b81548110610a7d57610a7c612563565b5b9060005260206000200160009054906101000a900473ffffffffffffffffffffffffffffffffffffffff1660028281548110610abc57610abb612563565b5b9060005260206000200160006101000a81548173ffffffffffffffffffffffffffffffffffffffff021916908373ffffffffffffffffffffffffffffffffffffffff1602179055506002805480610b1657610b156125f5565b5b6001900381819060005260206000200160006101000a81549073ffffffffffffffffffffffffffffffffffffffff02191690559055610b63565b8080610b5b90612624565b9150506109da565b506000600460008373ffffffffffffffffffffffffffffffffffffffff1673ffffffffffffffffffffffffffffffffffffffff16815260200190815260200160002060006101000a81548160ff02191690831515021790555050565b60036020528060005260406000206000915054906101000a900460ff1681565b610be761153c565b610c36848484848080601f016020809104026020016040519081016040528093929190818152602001838380828437600081840152601f19601f820116905080830192505050505050506114b8565b50505050565b610c446113f4565b600460008273ffffffffffffffffffffffffffffffffffffffff1673ffffffffffffffffffffffffffffffffffffffff16815260200190815260200160002060009054906101000a900460ff1615610cd1576040517f08c379a0000000000000000000000000000000000000000000000000000000008152600401610cc8906127c8565b60405180910390fd5b6002819080600181540180825580915050600190039060005260206000200160009091909190916101000a81548173ffffffffffffffffffffffffffffffffffffffff021916908373ffffffffffffffffffffffffffffffffffffffff1602179055506001600460008373ffffffffffffffffffffffffffffffffffffffff1673ffffffffffffffffffffffffffffffffffffffff16815260200190815260200160002060006101000a81548160ff02191690831515021790555050565b610d976113f4565b8173ffffffffffffffffffffffffffffffffffffffff166108fc829081150290604051600060405180830381858888f19350505050158015610ddd573d6000803e3d6000fd5b505050565b60008060009054906101000a90046bffffffffffffffffffffffff166bffffffffffffffffffffffff16905090565b6000600560009054906101000a900473ffffffffffffffffffffffffffffffffffffffff16905090565b6000610e45610e11565b73ffffffffffffffffffffffffffffffffffffffff166370a08231306040518263ffffffff1660e01b8152600401610e7d9190611fb6565b602060405180830381865afa158015610e9a573d6000803e3d6000fd5b505050506040513d601f19601f82011682018060405250810190610ebe91906127fd565b905090565b610ecb6113f4565b818190508484905014610f13576040517f08c379a0000000000000000000000000000000000000000000000000000000008152600401610f0a90612876565b60405180910390fd5b60005b84849050811015610fce57610fbb858583818110610f3757610f36612563565b5b9050602002016020810190610f4c9190611f17565b6000858585818110610f6157610f60612563565b5b9050602002810190610f739190612483565b8080601f016020809104026020016040519081016040528093929190818152602001838380828437600081840152601f19601f820116905080830192505050505050506114b8565b8080610fc690612624565b915050610f16565b5050505050565b610fdd6113f4565b600360008273ffffffffffffffffffffffffffffffffffffffff1673ffffffffffffffffffffffffffffffffffffffff16815260200190815260200160002060009054906101000a900460ff161561106a576040517f08c379a0000000000000000000000000000000000000000000000000000000008152600401611061906128e2565b60405180910390fd5b6001819080600181540180825580915050600190039060005260206000200160009091909190916101000a81548173ffffffffffffffffffffffffffffffffffffffff021916908373ffffffffffffffffffffffffffffffffffffffff1602179055506001600360008373ffffffffffffffffffffffffffffffffffffffff1673ffffffffffffffffffffffffffffffffffffffff16815260200190815260200160002060006101000a81548160ff02191690831515021790555050565b600280549050815114611170576040517f08c379a00000000000000000000000000000000000000000000000000000000081526004016111679061294e565b60405180910390fd5b60006111fb308460008081819054906101000a90046bffffffffffffffffffffffff16809291906111a090612986565b91906101000a8154816bffffffffffffffffffffffff02191690836bffffffffffffffffffffffff1602179055506040516020016111e093929190612a8f565b6040516020818303038152906040528051906020012061190e565b905060005b82518110156112f4576002818154811061121d5761121c612563565b5b9060005260206000200160009054906101000a900473ffffffffffffffffffffffffffffffffffffffff1673ffffffffffffffffffffffffffffffffffffffff1661128b84838151811061127457611273612563565b5b60200260200101518461193e90919063ffffffff16565b73ffffffffffffffffffffffffffffffffffffffff16146112e1576040517f08c379a00000000000000000000000000000000000000000000000000000000081526004016112d890612b23565b60405180910390fd5b80806112ec90612624565b915050611200565b506001839080600181540180825580915050600190039060005260206000200160009091909190916101000a81548173ffffffffffffffffffffffffffffffffffffffff021916908373ffffffffffffffffffffffffffffffffffffffff1602179055506001600360008573ffffffffffffffffffffffffffffffffffffffff1673ffffffffffffffffffffffffffffffffffffffff16815260200190815260200160002060006101000a81548160ff021916908315150217905550505050565b600281815481106113c557600080fd5b906000526020600020016000915054906101000a900473ffffffffffffffffffffffffffffffffffffffff1681565b600360003373ffffffffffffffffffffffffffffffffffffffff1673ffffffffffffffffffffffffffffffffffffffff16815260200190815260200160002060009054906101000a900460ff168061147757503073ffffffffffffffffffffffffffffffffffffffff163373ffffffffffffffffffffffffffffffffffffffff16145b6114b6576040517f08c379a00000000000000000000000000000000000000000000000000000000081526004016114ad90612b8f565b60405180910390fd5b565b6000808473ffffffffffffffffffffffffffffffffffffffff1684846040516114e19190612c15565b60006040518083038185875af1925050503d806000811461151e576040519150601f19603f3d011682016040523d82523d6000602084013e611523565b606091505b50915091508161153557805160208201fd5b5050505050565b611544610e11565b73ffffffffffffffffffffffffffffffffffffffff163373ffffffffffffffffffffffffffffffffffffffff16146115b1576040517f08c379a00000000000000000000000000000000000000000000000000000000081526004016115a890612c78565b60405180910390fd5b565b6000806115bf8461190e565b90506000611629868061014001906115d79190612483565b8080601f016020809104026020016040519081016040528093929190818152602001838380828437600081840152601f19601f820116905080830192505050505050508361193e90919063ffffffff16565b9050600360008273ffffffffffffffffffffffffffffffffffffffff1673ffffffffffffffffffffffffffffffffffffffff16815260200190815260200160002060009054906101000a900460ff16806116af5750600073ffffffffffffffffffffffffffffffffffffffff163273ffffffffffffffffffffffffffffffffffffffff16145b6116ee576040517f08c379a00000000000000000000000000000000000000000000000000000000081526004016116e590612ce4565b60405180910390fd5b6000925050509392505050565b806020013560008081819054906101000a90046bffffffffffffffffffffffff168092919061172990612986565b91906101000a8154816bffffffffffffffffffffffff02191690836bffffffffffffffffffffffff1602179055506bffffffffffffffffffffffff16146117a5576040517f08c379a000000000000000000000000000000000000000000000000000000000815260040161179c90612d50565b60405180910390fd5b50565b600081146118415760003373ffffffffffffffffffffffffffffffffffffffff16827fffffffffffffffffffffffffffffffffffffffffffffffffffffffffffffffff906040516117f89061269d565b600060405180830381858888f193505050503d8060008114611836576040519150601f19603f3d011682016040523d82523d6000602084013e61183b565b606091505b50509050505b50565b61184c6113f4565b565b8073ffffffffffffffffffffffffffffffffffffffff16600560009054906101000a900473ffffffffffffffffffffffffffffffffffffffff1673ffffffffffffffffffffffffffffffffffffffff167f450909c1478d09248269d4ad4fa8cba61ca3f50faed58c7aedefa51c7f62b83a60405160405180910390a380600560006101000a81548173ffffffffffffffffffffffffffffffffffffffff021916908373ffffffffffffffffffffffffffffffffffffffff16021790555050565b6000816040516020016119219190612ddd565b604051602081830303815290604052805190602001209050919050565b600080600061194d8585611965565b9150915061195a816119b6565b819250505092915050565b60008060418351036119a65760008060006020860151925060408601519150606086015160001a905061199a87828585611b82565b945094505050506119af565b60006002915091505b9250929050565b600060048111156119ca576119c9612e03565b5b8160048111156119dd576119dc612e03565b5b0315611b7f57600160048111156119f7576119f6612e03565b5b816004811115611a0a57611a09612e03565b5b03611a4a576040517f08c379a0000000000000000000000000000000000000000000000000000000008152600401611a4190612e7e565b60405180910390fd5b60026004811115611a5e57611a5d612e03565b5b816004811115611a7157611a70612e03565b5b03611ab1576040517f08c379a0000000000000000000000000000000000000000000000000000000008152600401611aa890612eea565b60405180910390fd5b60036004811115611ac557611ac4612e03565b5b816004811115611ad857611ad7612e03565b5b03611b18576040517f08c379a0000000000000000000000000000000000000000000000000000000008152600401611b0f90612f7c565b60405180910390fd5b600480811115611b2b57611b2a612e03565b5b816004811115611b3e57611b3d612e03565b5b03611b7e576040517f08c379a0000000000000000000000000000000000000000000000000000000008152600401611b759061300e565b60405180910390fd5b5b50565b6000807f7fffffffffffffffffffffffffffffff5d576e7357a4501ddfe92f46681b20a08360001c1115611bbd576000600391509150611c85565b601b8560ff1614158015611bd55750601c8560ff1614155b15611be7576000600491509150611c85565b600060018787878760405160008152602001604052604051611c0c9493929190613059565b6020604051602081039080840390855afa158015611c2e573d6000803e3d6000fd5b505050602060405103519050600073ffffffffffffffffffffffffffffffffffffffff168173ffffffffffffffffffffffffffffffffffffffff1603611c7c57600060019250925050611c85565b80600092509250505b94509492505050565b6000604051905090565b600080fd5b600080fd5b600073ffffffffffffffffffffffffffffffffffffffff82169050919050565b6000611ccd82611ca2565b9050919050565b611cdd81611cc2565b8114611ce857600080fd5b50565b600081359050611cfa81611cd4565b92915050565b6000819050919050565b611d1381611d00565b8114611d1e57600080fd5b50565b600081359050611d3081611d0a565b92915050565b600080fd5b600080fd5b600080fd5b60008083601f840112611d5b57611d5a611d36565b5b8235905067ffffffffffffffff811115611d7857611d77611d3b565b5b602083019150836001820283011115611d9457611d93611d40565b5b9250929050565b60008060008060608587031215611db557611db4611c98565b5b6000611dc387828801611ceb565b9450506020611dd487828801611d21565b935050604085013567ffffffffffffffff811115611df557611df4611c9d565b5b611e0187828801611d45565b925092505092959194509250565b600080fd5b60006101608284031215611e2b57611e2a611e0f565b5b81905092915050565b6000819050919050565b611e4781611e34565b8114611e5257600080fd5b50565b600081359050611e6481611e3e565b92915050565b60008060008060808587031215611e8457611e83611c98565b5b600085013567ffffffffffffffff811115611ea257611ea1611c9d565b5b611eae87828801611e14565b9450506020611ebf87828801611e55565b9350506040611ed087828801611ceb565b9250506060611ee187828801611d21565b91505092959194509250565b611ef681611d00565b82525050565b6000602082019050611f116000830184611eed565b92915050565b600060208284031215611f2d57611f2c611c98565b5b6000611f3b84828501611ceb565b91505092915050565b60008115159050919050565b611f5981611f44565b82525050565b6000602082019050611f746000830184611f50565b92915050565b600060208284031215611f9057611f8f611c98565b5b6000611f9e84828501611d21565b91505092915050565b611fb081611cc2565b82525050565b6000602082019050611fcb6000830184611fa7565b92915050565b6000611fdc82611ca2565b9050919050565b611fec81611fd1565b8114611ff757600080fd5b50565b60008135905061200981611fe3565b92915050565b6000806040838503121561202657612025611c98565b5b600061203485828601611ffa565b925050602061204585828601611d21565b9150509250929050565b6000819050919050565b600061207461206f61206a84611ca2565b61204f565b611ca2565b9050919050565b600061208682612059565b9050919050565b60006120988261207b565b9050919050565b6120a88161208d565b82525050565b60006020820190506120c3600083018461209f565b92915050565b60008083601f8401126120df576120de611d36565b5b8235905067ffffffffffffffff8111156120fc576120fb611d3b565b5b60208301915083602082028301111561211857612117611d40565b5b9250929050565b60008083601f84011261213557612134611d36565b5b8235905067ffffffffffffffff81111561215257612151611d3b565b5b60208301915083602082028301111561216e5761216d611d40565b5b9250929050565b6000806000806040858703121561218f5761218e611c98565b5b600085013567ffffffffffffffff8111156121ad576121ac611c9d565b5b6121b9878288016120c9565b9450945050602085013567ffffffffffffffff8111156121dc576121db611c9d565b5b6121e88782880161211f565b925092505092959194509250565b6000601f19601f8301169050919050565b7f4e487b7100000000000000000000000000000000000000000000000000000000600052604160045260246000fd5b61223f826121f6565b810181811067ffffffffffffffff8211171561225e5761225d612207565b5b80604052505050565b6000612271611c8e565b905061227d8282612236565b919050565b600067ffffffffffffffff82111561229d5761229c612207565b5b602082029050602081019050919050565b600080fd5b600067ffffffffffffffff8211156122ce576122cd612207565b5b6122d7826121f6565b9050602081019050919050565b82818337600083830152505050565b6000612306612301846122b3565b612267565b905082815260208101848484011115612322576123216122ae565b5b61232d8482856122e4565b509392505050565b600082601f83011261234a57612349611d36565b5b813561235a8482602086016122f3565b91505092915050565b600061237661237184612282565b612267565b9050808382526020820190506020840283018581111561239957612398611d40565b5b835b818110156123e057803567ffffffffffffffff8111156123be576123bd611d36565b5b8086016123cb8982612335565b8552602085019450505060208101905061239b565b5050509392505050565b600082601f8301126123ff576123fe611d36565b5b813561240f848260208601612363565b91505092915050565b6000806040838503121561242f5761242e611c98565b5b600061243d85828601611ceb565b925050602083013567ffffffffffffffff81111561245e5761245d611c9d565b5b61246a858286016123ea565b9150509250929050565b600080fd5b600080fd5b600080fd5b600080833560016020038436030381126124a05761249f612474565b5b80840192508235915067ffffffffffffffff8211156124c2576124c1612479565b5b6020830192506001820236038313156124de576124dd61247e565b5b509250929050565b600082825260208201905092915050565b7f546869732061646472657373206973206e6f742061207369676e657200000000600082015250565b600061252d601c836124e6565b9150612538826124f7565b602082019050919050565b6000602082019050818103600083015261255c81612520565b9050919050565b7f4e487b7100000000000000000000000000000000000000000000000000000000600052603260045260246000fd5b7f4e487b7100000000000000000000000000000000000000000000000000000000600052601160045260246000fd5b60006125cc82611d00565b91506125d783611d00565b92508282039050818111156125ef576125ee612592565b5b92915050565b7f4e487b7100000000000000000000000000000000000000000000000000000000600052603160045260246000fd5b600061262f82611d00565b91507fffffffffffffffffffffffffffffffffffffffffffffffffffffffffffffffff820361266157612660612592565b5b600182019050919050565b600081905092915050565b50565b600061268760008361266c565b915061269282612677565b600082019050919050565b60006126a88261267a565b9150819050919050565b6126bb81611fd1565b82525050565b60006040820190506126d660008301856126b2565b6126e36020830184611eed565b9392505050565b7f546869732061646472657373206973206e6f74206120677561726469616e0000600082015250565b6000612720601e836124e6565b915061272b826126ea565b602082019050919050565b6000602082019050818103600083015261274f81612713565b9050919050565b7f54686973206164647265737320697320616c726561647920612067756172646960008201527f616e000000000000000000000000000000000000000000000000000000000000602082015250565b60006127b26022836124e6565b91506127bd82612756565b604082019050919050565b600060208201905081810360008301526127e1816127a5565b9050919050565b6000815190506127f781611d0a565b92915050565b60006020828403121561281357612812611c98565b5b6000612821848285016127e8565b91505092915050565b7f77726f6e67206172726179206c656e6774687300000000000000000000000000600082015250565b60006128606013836124e6565b915061286b8261282a565b602082019050919050565b6000602082019050818103600083015261288f81612853565b9050919050565b7f54686973206164647265737320697320616c72656164792061207369676e6572600082015250565b60006128cc6020836124e6565b91506128d782612896565b602082019050919050565b600060208201905081810360008301526128fb816128bf565b9050919050565b7f496e76616c6964207369676e617475726573206c656e67746800000000000000600082015250565b60006129386019836124e6565b915061294382612902565b602082019050919050565b600060208201905081810360008301526129678161292b565b9050919050565b60006bffffffffffffffffffffffff82169050919050565b60006129918261296e565b91506bffffffffffffffffffffffff82036129af576129ae612592565b5b600182019050919050565b600081905092915050565b7f5257000000000000000000000000000000000000000000000000000000000000600082015250565b60006129fb6002836129ba565b9150612a06826129c5565b600282019050919050565b60008160601b9050919050565b6000612a2982612a11565b9050919050565b6000612a3b82612a1e565b9050919050565b612a53612a4e82611cc2565b612a30565b82525050565b60008160a01b9050919050565b6000612a7182612a59565b9050919050565b612a89612a848261296e565b612a66565b82525050565b6000612a9a826129ee565b9150612aa68286612a42565b601482019150612ab68285612a42565b601482019150612ac68284612a78565b600c82019150819050949350505050565b7f496e76616c6964207369676e6174757265730000000000000000000000000000600082015250565b6000612b0d6012836124e6565b9150612b1882612ad7565b602082019050919050565b60006020820190508181036000830152612b3c81612b00565b9050919050565b7f6f6e6c79206f776e657200000000000000000000000000000000000000000000600082015250565b6000612b79600a836124e6565b9150612b8482612b43565b602082019050919050565b60006020820190508181036000830152612ba881612b6c565b9050919050565b600081519050919050565b60005b83811015612bd8578082015181840152602081019050612bbd565b60008484015250505050565b6000612bef82612baf565b612bf9818561266c565b9350612c09818560208601612bba565b80840191505092915050565b6000612c218284612be4565b915081905092915050565b7f6163636f756e743a206e6f742066726f6d20456e747279506f696e7400000000600082015250565b6000612c62601c836124e6565b9150612c6d82612c2c565b602082019050919050565b60006020820190508181036000830152612c9181612c55565b9050919050565b7f6163636f756e743a2077726f6e67207369676e61747572650000000000000000600082015250565b6000612cce6018836124e6565b9150612cd982612c98565b602082019050919050565b60006020820190508181036000830152612cfd81612cc1565b9050919050565b7f6163636f756e743a20696e76616c6964206e6f6e636500000000000000000000600082015250565b6000612d3a6016836124e6565b9150612d4582612d04565b602082019050919050565b60006020820190508181036000830152612d6981612d2d565b9050919050565b7f19457468657265756d205369676e6564204d6573736167653a0a333200000000600082015250565b6000612da6601c836129ba565b9150612db182612d70565b601c82019050919050565b6000819050919050565b612dd7612dd282611e34565b612dbc565b82525050565b6000612de882612d99565b9150612df48284612dc6565b60208201915081905092915050565b7f4e487b7100000000000000000000000000000000000000000000000000000000600052602160045260246000fd5b7f45434453413a20696e76616c6964207369676e61747572650000000000000000600082015250565b6000612e686018836124e6565b9150612e7382612e32565b602082019050919050565b60006020820190508181036000830152612e9781612e5b565b9050919050565b7f45434453413a20696e76616c6964207369676e6174757265206c656e67746800600082015250565b6000612ed4601f836124e6565b9150612edf82612e9e565b602082019050919050565b60006020820190508181036000830152612f0381612ec7565b9050919050565b7f45434453413a20696e76616c6964207369676e6174757265202773272076616c60008201527f7565000000000000000000000000000000000000000000000000000000000000602082015250565b6000612f666022836124e6565b9150612f7182612f0a565b604082019050919050565b60006020820190508181036000830152612f9581612f59565b9050919050565b7f45434453413a20696e76616c6964207369676e6174757265202776272076616c60008201527f7565000000000000000000000000000000000000000000000000000000000000602082015250565b6000612ff86022836124e6565b915061300382612f9c565b604082019050919050565b6000602082019050818103600083015261302781612feb565b9050919050565b61303781611e34565b82525050565b600060ff82169050919050565b6130538161303d565b82525050565b600060808201905061306e600083018761302e565b61307b602083018661304a565b613088604083018561302e565b613095606083018461302e565b9594505050505056fea2646970667358221220fa525f1d24c4093a11562590ee8d25cd65b1f885ffa020f2b8dfbaf179e43dc764736f6c63430008110033a2646970667358221220c1847acf661e31265130ec0a18202fcef34fbee46404f475c0504bc583ee4bb764736f6c63430008110033",
  "devdoc": {
    "kind": "dev",
    "methods": {},
    "version": 1
  },
  "userdoc": {
    "kind": "user",
    "methods": {},
    "notice": "a sampler deployer contract for SimpleWallet the \"initCode\" for a wallet hold its address and a method call (deployWallet) with parameters, not actual constructor code.",
    "version": 1
  },
  "storageLayout": {
    "storage": [],
    "types": null
  }
}